:10000000A9C00000C2C00000C0C00000BEC0000007
:10001000BCC00000BAC00000B8C00000B6C00000FC
:10002000B4C0000071C50000B0C0000023C10000D2
:1000300061C10000AAC00000A8C000000EC50000F9
:10004000A4C00000A2C00000A0C000009EC000002C
:100050009CC0000019C5000098C0000012C3000039
:10006000E5C2000092C0000090C000008EC00000F9
:100070008CC000008AC0000088C0000086C000005C
:1000800084C0000082C0000080C000007EC000006C
:100090007CC000007AC0000000010000CF00120008
:1000A000020000E1002200220000030115002100EF
:1000B00000F3000900030000180104010309041CF7
:1000C000011402030904320120000001C1260012BC
:1000D00001000200000020C01679040001010200A6
:1000E0000109022200010100C032090400000103DD
:1000F00000000009211101000122150007058303FA
:100100002000010631FF0974A1537508150026FF70
:1001100000952009758102C00403090414035900E5
:100120006F007500720020004E0061006D006500D8
:100130000000200359006F00750072002000550078
:10014000530042002000440065007600690063000F
:100150006500000011241FBECFEFD2E0DEBFCDBF8F
:1001600011E0A0E0B1E0E4E0FDE002C005900D92F6
:10017000AE30B107D9F711E0AEE0B1E001C01D9299
:10018000A33AB107E1F702D0BBC53ACF4F925F92D5
:100190006F927F928F929F92AF92BF92CF92DF9297
:1001A000EF92FF920F931F93CF93DF9344D460E0BD
:1001B00072EC81E090E0F9D180E090E068E371E0DA
:1001C0001CD480E8809361001092610015B8CC24A3
:1001D000DD24AA24BB2430E9432E31E0532E20E055
:1001E000622E21E0722E94E0892E91E0992E88EE05
:1001F00093E0F2013197F1F70197D9F700D0ADB74D
:10020000BEB712967C926E92119700D40F900F9009
:1002100065D47B018C018EE016950795F794E794E1
:100220008A95D1F7E701C7018C199D09895E934032
:1002300098F000D000D0EDB7FEB73196ADB7BEB79D
:1002400012969C928E921197F382E282DFD367011D
:100250000F900F900F900F90CE018A199B09853651
:10026000910508F4C4CF85B1809585B95E01BFCFF3
:10027000862FC6C11F920F920FB60F9211248F9333
:100280009F938091E1001092E100982F83FF0FC0AF
:100290001092E90081E08093EB001092EC0082E282
:1002A0008093ED0088E08093F00010920E0192FFA1
:1002B0001AC080910E018823B1F080910F0188232C
:1002C00091F0815080930F01882369F483E080933B
:1002D000E90002C01092F1008091E80085FDFACF9C
:1002E0008AE38093E8009F918F910F900FBE0F904B
:1002F0001F9018951F920F920FB60F9211242F93F3
:100300003F934F935F936F937F938F939F93AF939D
:10031000BF93CF93DF93EF93FF931092E900809107
:10032000E80083FF2CC14091F1003091F1008091F1
:10033000F100A82FB0E02091F100922F80E0A82BCF
:10034000B92B8091F100682F70E02091F100922F7D
:1003500080E0682B792B8091F100C82FD0E02091AC
:10036000F100922F80E0C82BD92B82EF8093E80018
:10037000363009F056C02FE930E0A9014550504011
:10038000F9013797859194918A179B07E1F4FA0157
:100390008591949186179707B1F49A012E5F3F4F8C
:1003A000F901659174912E5F3F4FF9012491CE01BF
:1003B000CF3FD10519F010F08FEF90E0422F821758
:1003C00058F4482F09C0295F3F4F495F5F4FF0E065
:1003D000203D3F07A9F6D3C05EEF8091E800282FAB
:1003E00030E0C90185709070892BB9F322FDCAC035
:1003F000342F413208F030E2232FCB0106C0FC013C
:100400000196E491E093F10021502223C1F7630F9C
:10041000711D431B5093E8004423F9F63032E9F292
:10042000B1C0353061F48EEF8093E8008091E80030
:1004300080FFFCCF8A2F80688093E300A3C039300F
:1004400031F5442309F09BC0A0930E018EEF8093F9
:10045000E80089EC90E021E02093E900FC0101969E
:10046000E491E093EB00EE2369F0AC014F5F5F4F46
:10047000FC0184918093EC00CA010196FA01349149
:100480003093ED002F5F253039F78EE14DC03830C5
:1004900061F4403809F073C08091E80080FFFCCF20
:1004A00080910E018093F1001BC03323E9F4809109
:1004B000E80080FFFCCF423811F080E00DC060936F
:1004C000E9008091EB0090E025E0969587952A95CC
:1004D000E1F781701092E9008093F1001092F10031
:1004E0008EEF8093E8004EC0313019F0333009F0C0
:1004F00046C04230F1F4AB2BE1F4262F2F77822F48
:1005000081508430B0F48EEF8093E8002093E900AE
:100510003330A9F189E18093EB0081E090E002C0E3
:10052000880F991F2A95E2F78093EA001092EA005B
:1005300029C0313021F5413A11F5672B01F54C2FD7
:100540005EEF8091E800282F30E0C901857090703F
:10055000892BB9F322FD16C0942F413208F090E2A6
:10056000892F03C01092F10081508823D9F7491BCD
:100570005093E800442329F7903219F303C081E235
:100580008093EB00FF91EF91DF91CF91BF91AF91FD
:100590009F918F917F916F915F914F913F912F919B
:1005A0000F900FBE0F901F9018959B01AC01F8940F
:1005B00060E079E08DE390E081D32150304040400D
:1005C000504056954795379527953093CD00209309
:1005D000CC0082E08093C80088E98093C90086E05F
:1005E0008093CA0010923A0180913A0180933901B8
:1005F00010927C0180917C0180937B017894089516
:10060000282F909139019F5F983208F090E08091F7
:100610003A018917E1F3E92FF0E0EF5EFE4F208306
:100620009093390188EB8093C90008951F920F922F
:100630000FB60F9211248F939F93EF93FF93909196
:10064000390180913A01981721F488E98093C90013
:100650000FC090913A019F5F983208F090E0E92F27
:10066000F0E0EF5EFE4F80818093CE0090933A01E0
:10067000FF91EF919F918F910F900FBE0F901F9060
:1006800018951F920F920FB60F9211242F938F93EC
:100690009F93EF93FF932091CE0090917B019F5FFA
:1006A000903408F090E080917C01981739F0E92FA0
:1006B000F0E0E55CFE4F208390937B01FF91EF918A
:1006C0009F918F912F910F900FBE0F901F901895B3
:1006D0008F929F92AF92BF92CF92DF92EF92FF9252
:1006E0000F931F93CF93DF935C017B014A01690154
:1006F000C1E0D0E004C0CE01B701BAD2EC01C5011F
:10070000BE01C8D26E157F05B0F700E010E027C02B
:10071000C501BE01BFD29B01CE01B701BBD2FB0117
:100720000115110531F4121613061CF0611571053F
:1007300089F42A30310514F480E306C08114910451
:1007400011F487E501C087E3820FD6018D936D0117
:100750000F5F1F4FC501BE019DD25C01EF012097C5
:10076000B9F6F6011082DF91CF911F910F91FF90A2
:10077000EF90DF90CF90BF90AF909F908F900895B3
:10078000BF92CF92DF92EF92FF920F931F93CF937E
:10079000DF936C017B01E801222319F490E2B92E6A
:1007A00002C080E3B82EFE0102C04150504081914A
:1007B000882311F48A010AC014161506B4F3FACF7F
:1007C000C6016B2DF7010995015010401016110656
:1007D000BCF303C0C601F701099569916623D1F7FF
:1007E000DF91CF911F910F91FF90EF90DF90CF900D
:1007F000BF9008952F923F924F925F926F927F9297
:100800008F929F92AF92BF92CF92DF92EF92FF9220
:100810000F931F93DF93CF93CDB7DEB72C970FB60F
:10082000F894DEBF0FBECDBF2C013B014A01690128
:100830001E010894211C311CC2C00894811C911C0B
:10084000653211F0C201B9C0F40171914F017033EA
:1008500011F010E003C071914F0111E0872F805318
:100860008A3018F0AA24BB242CC0AA24BB240DC0B3
:100870002B30310534F5C5016AE070E0F9D159013A
:10088000A80EB91EF40171914F01872F80538A3051
:1008900028F4272F30E02053304011C0872F815695
:1008A000863028F4272F30E02755304008C0872FA6
:1008B0008154863030F4272F30E02753304037FF03
:1008C000D7CF743639F1753680F4783509F442C0E3
:1008D000793538F4772309F477C0753209F06FC0A1
:1008E0006AC0733609F06BC04DC0753731F0783788
:1008F00089F1733709F063C04FC042E0E42EF12C58
:10090000EC0CFD1CF601808191816AE070E040E012
:1009100050E030C0F6014081518157FD02C0C10155
:1009200007C0509541955F4FFDE2F983CE010296D5
:100930009C0182E090E0C80ED91ECA016AE070E016
:1009400040E050E0C5DEC201B301A501212F8101C5
:1009500017DF35C032E0E32EF12CEC0CFD1CF60164
:100960008081918140E050E0783511F441E050E021
:1009700060E170E09101ACDEC201B301A501212F5D
:10098000810116C086010E5F1F4FC201F601608112
:10099000F3010995680113C022E0E22EF12CEC0C62
:1009A000FD1CF60100811181C201B301A50120E007
:1009B000E7DE670104C0C20165E2F3010995F401B5
:1009C0006081662309F039CF2C960FB6F894DEBF0C
:1009D0000FBECDBFCF91DF911F910F91FF90EF9090
:1009E000DF90CF90BF90AF909F908F907F906F904F
:1009F0005F904F903F902F90089570937E01609389
:100A00007D019093800180937F010895DF93CF93C0
:100A1000CDB7DEB7FE0135964191519160917D01D0
:100A200070917E0180917F01909180019F01E2DEB3
:100A3000CF91DF910895E0E8F0E0808188608083C5
:100A400083E08093810082E080936F0080E09DE7E7
:100A5000909389008093880008951F920F920FB69B
:100A60000F9211248F939F9380E09DE790938900CC
:100A7000809388008BB180958BB99F918F910F9057
:100A80000FBE0F901F9018951F920F920FB60F92E6
:100A900011248F939F93AF93BF9380918101909185
:100AA0008201A0918301B09184010196A11DB11D25
:100AB0008093810190938201A0938301B09384017C
:100AC0002E9B02C02E9801C02E9ABF91AF919F918C
:100AD0008F910F900FBE0F901F901895F894209152
:100AE000810130918201409183015091840186B54A
:100AF0007894542F432F322F2227280F311D411D68
:100B0000511DB901CA0108951F920F920FB60F929D
:100B100011246F927F928F929F92AF92BF92CF9249
:100B2000DF92EF92FF920F931F932F933F934F9378
:100B30005F936F937F938F939F93AF93BF93EF9345
:100B4000FF931C9978C06090810170908201809021
:100B500083019090840176B5A89B07C07F3F29F060
:100B60000894611C711C811C911C809186019091DC
:100B70008701A0918801B0918901A4019301281BEC
:100B8000390B4A0B5B0B2F3131054105510540F004
:100B900010920C01809185018F5F8093850141C087
:100BA00080910C0187FD47C080910C0186300CF0CC
:100BB00042C060910C01E62FFF27E7FDF095A09061
:100BC0008601B0908701C0908801D0908901209162
:100BD0008A01182D072DF62CEE24872F90E0A0E037
:100BE000B0E0E82AF92A0A2B1B2B30E040E050E065
:100BF000DC2CCB2CBA2CAA242A293B294C295D2990
:100C0000E21AF30A040B150BEE0FFF1FEE0FFF1F86
:100C1000E557FE4FE082F182028313836F5F60939A
:100C20000C016092860170928701809288019092F7
:100C3000890170938A01FF91EF91BF91AF919F91CC
:100C40008F917F916F915F914F913F912F911F9164
:100C50000F91FF90EF90DF90CF90BF90AF909F905B
:100C60008F907F906F900F900FBE0F901F901895F0
:100C70005527002480FF02C0060E571F660F771FFE
:100C80006115710521F096958795009799F7952F35
:100C9000802D0895AA1BBB1B51E107C0AA1FBB1FD3
:100CA000A617B70710F0A61BB70B881F991F5A95F8
:100CB000A9F780959095BC01CD010895A1E21A2E67
:100CC000AA1BBB1BFD010DC0AA1FBB1FEE1FFF1FF0
:100CD000A217B307E407F50720F0A21BB30BE40B40
:100CE000F50B661F771F881F991F1A9469F7609587
:100CF0007095809590959B01AC01BD01CF01089541
:040D0000F894FFCF95
:0E0D04004C4F4C0061742025640A0D00FF0066
:00000001FF
